:020000040800F2
:10000000000002205D5B0008810C0008830C0008E2
:10001000850C0008870C0008890C0008000000000F
:100020000000000000000000000000008B0C000831
:100030008D0C0008000000008F0C0008910C0008D7
:10004000B15B0008B15B0008B15B0008B15B000860
:10005000B15B0008B15B0008B15B0008B15B000850
:10006000B15B0008B15B0008B15B0008990C0008A7
:10007000A90C0008B15B0008B15B0008B15B000887
:10008000B15B0008B15B0008B15B0008B15B000820
:10009000B15B0008B15B0008B15B0008B15B000810
:1000A000B15B0008B15B0008B15B0008B15B000800
:1000B000B15B0008B15B0008B15B0008B15B0008F0
:1000C000B15B0008B15B0008B15B0008B15B0008E0
:1000D000B15B0008B15B0008B15B0008B90C000817
:1000E000B15B0008B15B000800000000B15B0008D4
:1000F000B15B0008B15B0008B15B0008B15B0008B0
:10010000B15B0008B15B0008B15B0008B15B00089F
:10011000B15B0008B15B0008B15B0008B15B00088F
:10012000B15B0008B15B0008B15B0008B15B00087F
:10013000B15B0008B15B0008B15B0008B15B00086F
:1001400000000000000000000000000000000000AF
:10015000B15B0008B15B0008B15B0008B15B00084F
:10016000B15B0008B15B0008B15B0008B15B00083F
:10017000B15B0008B15B0008B15B0008B15B00082F
:10018000B15B0008B15B0008B15B0008B15B00081F
:10019000B15B0008B15B0008B15B0008B15B00080F
:1001A000B15B0008B15B0008B15B0008B15B0008FF
:1001B000B15B0008B15B0008B15B0008B15B0008EF
:1001C000B15B0008B15B0008B15B0008B15B0008DF
:1001D000B15B0008B15B0008B15B0008B15B0008CF
:1001E000B15B0008B15B0008B15B0008B15B0008BF
:1001F000B15B0008B15B0008B15B0008B15B0008AF
:10020000B15B0008B15B0008B15B0008B15B00089E
:10021000B15B0008B15B0008B15B0008B15B00088E
:10022000B15B0008B15B0008B15B00080000000092
:10023000B15B0008B15B000800000000B15B000882
:10024000B15B0008B15B0008B15B0008B15B00085E
:10025000B15B0008B15B0008B15B0008B15B00084E
:10026000B15B0008B15B0008B15B0008B15B00083E
:10027000B15B0008B15B0008B15B00080000000042
:10028000B15B0008B15B0008B15B00080000000032
:0802900000000000B15B000852
:1002A00010F8012B11F8013B012A28BF9A42F7D020
:1002B000D01A7047034613F8012B002AFBD1181AF5
:1002C000013870470000000000000000000000003E
:1002D00001F0FF01102A2BDB10F0070F08D010F8F7
:1002E000013B013A8B422DD010F0070F42B3F6D1FB
:1002F000F0B441EA012141EA014122F007047FF014
:1003000000070023F0E80256083C85EA010586EA6A
:10031000010685FA47F5A3FA87F586FA47F6A5FAA6
:1003200087F68EB9EED1F0BC01F0FF0102F00702B2
:1003300032B110F8013B013A83EA010313B1F8D15D
:100340000020704701387047002D06BF354603383E
:10035000073815F0010F07D1013015F4807F02BF77
:10036000013015F4C03F0130F0BC0138704700BFC8
:1003700053B94AB9002908BF00281CBF4FF0FF310C
:100380004FF0FF3000F00CB8ADF1080C6DE904CE71
:1003900006F092F8DDF804E0DDE9022304B07047CE
:1003A000704700BF0348044B834202D0034B03B1A4
:1003B00018477047B4020020B4020020000000007B
:1003C0000548064B1B1AD90F01EBA301491002D0B7
:1003D000034B03B118477047B4020020B402002059
:1003E0000000000010B5064C227842B9FFF7DAFF92
:1003F000044B13B10448AFF300800123237010BDF8
:10040000B4020020000000006467000808B5054B36
:100410001BB105490548AFF30080BDE80840FFF770
:10042000CFBF00BF00000000B802002064670008D2
:10043000F0B58DB000240A940B94634BD3F8E02000
:1004400042F01002C3F8E020D3F8E02002F01002DE
:100450000092009AD3F8E02042F02002C3F8E02096
:10046000D3F8E02002F020020192019AD3F8E020B4
:1004700042F00402C3F8E020D3F8E02002F00402C6
:100480000292029AD3F8E02042F00102C3F8E02081
:10049000D3F8E02002F001020392039AD3F8E0209F
:1004A00042F00202C3F8E020D3F8E02002F002029A
:1004B0000492049AD3F8E02042F04002C3F8E0200E
:1004C000D3F8E02002F040020592059AD3F8E0202C
:1004D00042F00802C3F8E020D3F8E03003F008034C
:1004E0000693069B4FF6FF63079308940225099530
:1004F000364F07A9384602F0D1FB4FF60F7307932A
:1005000008940995324E07A9304602F0C7FBD02364
:1005100007930894099407A9304602F0BFFB012312
:10052000079308940995A6F5406607A9304602F09E
:10053000B5FB41F64C7307930894099407A930461C
:1005400002F0ACFB1823079308940995A6F5006602
:1005500007A9304602F0A2FB602307930894099490
:1005600007A9304602F09AFB40F6860307930894E9
:10057000099406F5806607A9304602F08FFB4DF21C
:100580007F7307930894099507A9124802F086FB28
:100590004FF4807307930894099407A9384602F032
:1005A0007DFB4FF6FB0307930894099507A90A48BA
:1005B00002F074FB082307930894099507A93046B5
:1005C00002F06CFB0DB0F0BD004402580010025860
:1005D0000014025800180258000C025810B584B0DC
:1005E0000024009401940294039400F07BFC012306
:1005F0008DF800308DF801404FF0405201921222E8
:100600008DF808208DF809408DF80A3003228DF806
:100610000B208DF80C308DF80D308DF80E408DF8D4
:100620000F40684600F080FC042000F06BFC04B032
:1006300010BD000000B583B00F4BD3F8D82042F0B6
:100640000102C3F8D820D3F8D83003F00103019396
:10065000019B002211460B2000F0EEFB0B2000F066
:100660001DFC002211460C2000F0E6FB0C2000F0DF
:1006700015FC03B05DF804FB0044025808B5D0F83F
:100680008830202BFBD104F077F808BD00B589B085
:100690006B4683E8030000230793BDF80420039210
:1006A000012204920593069303A902F0F7FA09B018
:1006B0005DF804FB00B589B06B4683E803000023B6
:1006C0000793BDF804200392049302220592069337
:1006D00003A902F0E3FA09B05DF804FBF8B5057868
:1006E0008D4240D206460F4622B90023214A13709C
:1006F000214A137001239D4215D3F05C472834D85A
:10070000DFF870C09CF800201C4C04EBC2041C49AC
:1007100001EBC00103C984E8030001328CF800201A
:100720000133DBB2E7E7174C2046FFF7C3FD164B5A
:100730001B8823520135EDB2BD4212D2705D4728AD
:1007400015D80D4C2378114A02EBC3020C4901EB7A
:10075000C00103C982E80300013323700135EDB203
:10076000EAE7002000E00120F8BD0120FCE70120BD
:10077000FAE700BFD1020020D0020020A40600202A
:1007800000000020000000307C67000864040020A6
:1007900010B4044608460378A34204D101301388FC
:1007A000013B1380F7E75DF8044B7047124B1B7851
:1007B000DBB2012B1DD930B583B005460C460E4B7C
:1007C0001B78ADF806300DF106020C492020FFF72A
:1007D000DFFF0146A3B2BDF80620934200D9D4B290
:1007E000013C2246284605F054FA0020285503B063
:1007F00030BD0120704700BFD3020020000100304F
:10080000154B1B78DBB2012B23D9F0B583B005461D
:100810000C46114B1B78ADF806300DF106020F495E
:10082000FF20FFF7B5FF074622780021284605F094
:10083000F9F92678B2B2BDF806309A4200D9DEB294
:1008400032463946284605F0DFF92670002003B00D
:10085000F0BD0120704700BFD3020020000100302E
:1008600008B50268084B9A4200D008BDC9B2074BD0
:100870001970074B01221A704FF48072054906481F
:1008800005F098F8F1E700BF00480040D3020020CF
:10089000D202002000010030580300200268124BF1
:1008A0001B689A4200D0704770B50446D0F890306B
:1008B00013F00F0F00D170BD03F0AEFF22689369F3
:1008C00043F00803936123680F221A62074D4FF427
:1008D000807632460021284605F0A4F932462946A2
:1008E000204605F067F8E6E75803002000010030D5
:1008F00072B6FEE708B51948194B03604FF4E133AF
:10090000436000238360C36003610C224261836102
:10091000C36103624362302383624FF48053C36335
:100920004FF40053036404F028FF70B900210B4812
:1009300004F0F6FF58B90021084805F016F840B950
:10094000064804F0CEFF30B908BDFFF7D1FFFFF72E
:10095000CFFFFFF7CDFFFFF7CBFF00BF580300200D
:100960000048004000B59DB04C22002109A805F0C8
:1009700059F92022002101A805F054F9022003F0C2
:1009800009FE002300931E4BDA6A22F00102DA62AC
:10099000DB6A03F0010300931A4A936923F440438E
:1009A00043F480439361936903F440430093009BB5
:1009B000144B9B6913F4005FFAD0022309930123BF
:1009C0000C9340230D930023129309A800F0D2FA50
:1009D00090B93F230193002302930393049305935B
:1009E0004022069207930893012101A800F016FF08
:1009F00020B91DB05DF804FBFFF77AFFFFF778FF21
:100A000000040058004802582DE9F04383B000AFBD
:100A1000FFF7E4FD03F010FEFFF7A4FFFFF708FD6A
:100A2000FFF708FEFFF766FF804C0B228049204647
:100A300003F0A2FE4FF480727E49204604F0BAFF14
:100A4000002407E07C4B03EBC40393E80300FFF7AB
:100A500031FE0134472CF5DD002604246CE001242E
:100A600052E0764B00221A70754B1A7871496F4824
:100A7000FFF704FE322003F01FFE704B1B78002BA3
:100A8000FBD0EEE7324639784046FFF727FE0028D4
:100A900051D104226B496548FFF7F0FDAD460424AF
:100AA00000260CE0684B1B781BB1684B1B78002BB1
:100AB00052D1082266495D48FFF7E0FD04245F4BF0
:100AC0001B78002BFBD05D4B00221A7005213846A5
:100AD000FFF76CFE00282FD15E493846FFF7E0FB98
:100AE0000028DFD05C493846FFF7DAFB0028B6D093
:100AF0005A493846FFF7D4FBF0B9092258494B4808
:100B0000FFF7BCFD01242646092256494748FFF756
:100B1000B5FD4A4B1B78002BFBD06D46474B00229E
:100B20001A7040233B7090B0E84639466846FFF79C
:100B300067FE0028A6D0AD46042CFDD801A353F8CB
:100B400024F000BFA50A0008090B00087B0A000872
:100B5000FB0A0008BF0A00080025434B1D7035E062
:100B60000134472C1CDC344B03EBC402918853F84E
:100B7000340002F08DF90128F2D12F4B03EBC403AE
:100B8000DA883A4B03EBC803DB889A42E8D038494D
:100B9000384605F04FF83946334805F06BF8DFE783
:100BA000324B03EBC8040022A18853F8380002F04E
:100BB00076F994E80300FFF77DFD2B4C2046FFF704
:100BC00079FB2C4B1B8823520135EDB21E4B1B7851
:100BD000AB4219D9A846DFF8949009EBC50494E814
:100BE0000300FFF753FD0122A18859F8350002F0F8
:100BF00056F9E2882049384605F01CF839461A486B
:100C000005F038F80024ACE7174D2846FFF752FBF3
:100C1000064C82B229462046FFF730FD07221749CD
:100C20002046FFF72BFD042449E700BF58030020AE
:100C3000806700080001003000000020D202002080
:100C4000D3020020BC670008D1020020D00200209F
:100C5000B86700088C67000890670008986700086C
:100C6000AC670008A067000800000030A406002060
:100C7000C8670008A8670008C4670008CC670008B8
:100C8000FEE7FEE7FEE7FEE7FEE7704770477047C6
:100C900008B503F0FFFC08BD08B5024803F0DCF816
:100CA00008BD00BFE002002008B5024803F0D4F8F8
:100CB00008BD00BFEC03002008B5024803F070FE39
:100CC00008BD00BF5803002082B0074BD3F8F420C2
:100CD00042F00202C3F8F420D3F8F43003F0020328
:100CE0000193019B02B070470044025830B5B9B07F
:100CF0000446002133913491359136913791C022C9
:100D000002A804F08FFF22683B4B9A4201D039B011
:100D100030BD02220023CDE902230023209302A844
:100D200001F018F800285ED1344BD3F8E82042F4E3
:100D30008022C3F8E820D3F8E82002F48022009251
:100D4000009AD3F8E02042F00802C3F8E020D3F87C
:100D5000E03003F008030193019B4FF44073339399
:100D6000022334930025359536950723379333A90D
:100D7000234801F093FF2348234B03602D23436056
:100D80008560C5604FF48063036145618561C5611D
:100D90004FF440330362456202F09AFA30BB194BBC
:100DA000C4F880309C631948194B03602E234360BC
:100DB000402383600023C3604FF48062026143617B
:100DC0008361C3610362436202F082FA88B90F4B08
:100DD000E3679C6300221146272000F02DF82720AE
:100DE00000F05CF893E7FFF783FD9DE7FFF780FDD8
:100DF000D5E7FFF77DFDEAE70048004000440258D0
:100E0000000C0258E002002010000240EC03002019
:100E1000280002400649CB6823F4E0631B041B0C46
:100E2000000200F4E0600343024A1A43CA607047BC
:100E300000ED00E00000FA0530B4154BDB68C3F3A9
:100E40000223C3F10704042C28BF04241D1D062D12
:100E500014D9033B4FF0FF3505FA04F421EA0401ED
:100E6000994005FA03F322EA03031943002807DB3C
:100E70000901C9B2074B195430BC70470023E9E798
:100E800000F00F000901C9B2034B1954F4E700BF89
:100E900000ED00E000E400E014ED00E0002807DBD6
:100EA00000F01F02400901239340024A42F820301B
:100EB000704700BF00E100E00138B0F1807F0AD246
:100EC000064B5860064AF02182F8231000209860F3
:100ED00007221A6070470120704700BF10E000E051
:100EE00000ED00E0BFF35F8F044A536A23F48033C0
:100EF0005362034B00225A60704700BF00ED00E0D0
:100F000090ED00E040F00100054B5860054A536A3F
:100F100043F480335362BFF34F8FBFF36F8F70473B
:100F200090ED00E000ED00E04378114A9360136912
:100F300023F0010313614368D360017BC37A1B066E
:100F400043EA0173817A43EAC143417B43EA814327
:100F5000817B43EA4143C17B43EA0143417A43EA4F
:100F60000123017A43EA410301780B43136170477F
:100F700090ED00E0002800F0398338B5044603689E
:100F800013F0010F25D0A74A136903F03803926AC2
:100F9000102B15D0182B0FD06368B3F5803F3FD0CE
:100FA000002B53D19F4B1A6822F480321A601A68C2
:100FB00022F480221A6038E002F00302022AEBD108
:100FC000984B1B6813F4003F03D06368002B00F0BC
:100FD0000F83236813F0020F00F0A180914A136978
:100FE000926A13F038035AD0182B55D0E368002BBF
:100FF00000F0DE808B490A6822F0190213430B606F
:1010000003F054FB0546874B1B6813F0040F40F0B8
:10101000AD8003F04BFB401B0228F4D90320EEE225
:10102000804A136843F48033136063682BB303F082
:101030003DFB05467B4B1B6813F4003FC9D103F011
:1010400035FB401B6428F5D90320D8E2B3F5A02F67
:1010500009D0744B1A6822F480321A601A6822F49C
:1010600080221A60E1E76F4B1A6842F480221A600E
:101070001A6842F480321A60D7E703F017FB05467E
:10108000684B1B6813F4003FA3D003F00FFB401B19
:101090006428F5D90320B2E212F0030FA6D1614B08
:1010A0001B6813F0040F03D0E368002B00F0A2824A
:1010B0005C4A136823F01903E1680B43136003F0E3
:1010C000F5FA0546574B1B6813F0040F06D103F0E1
:1010D000EDFA401B0228F5D9032090E203F000FB53
:1010E00041F20303984212D82269402A07D04D49A1
:1010F0004B6823F47C3343EA02334B600FE0494AE8
:10110000536823F47C3343F40033536007E0454ACB
:10111000536823F0FE43216943EA01635360236867
:1011200013F0100F00F088803E4A136903F0380373
:10113000926A082B54D0182B4ED0E369002B00F094
:10114000B880384A136843F08003136003F0AEFAA6
:101150000546344B1B6813F4807F40F0888003F011
:10116000A5FA401B0228F4D9032048E203F0B8FA9C
:1011700041F20303984212D82269402A07D0294934
:101180004B6823F47C3343EA02334B60C7E7254ABC
:10119000536823F47C3343F400335360BFE7214AA0
:1011A000536823F0FE43216943EA01635360B6E7C5
:1011B0001C4A136823F00103136003F077FA054615
:1011C000184B1B6813F0040FA9D003F06FFA401BF3
:1011D0000228F5D9032012E202F00302012AACD161
:1011E000104B1B6813F4807F03D0E369802B40F021
:1011F000038203F075FA41F20303984214D8226A7D
:10120000202A07D007494B6823F0F84343EA82635A
:101210004B6011E0034A536823F0F84343F08043E6
:10122000536009E0004402589A4AD36823F07C5383
:10123000216A43EA0163D360236813F0080F60D08A
:101240006369002B49D0934A536F43F001035367FE
:1012500003F02CFA05468F4B5B6F13F0020F50D151
:1012600003F024FA401B0228F5D90320C7E103F05C
:1012700037FA41F20303984212D8226A202A07D093
:1012800084494B6823F0F84343EA82634B60D3E719
:10129000804A536823F0F84343F080435360CBE720
:1012A0007C4AD36823F07C53216A43EA0163D3600C
:1012B000C2E7784A136823F08003136003F0F6F95D
:1012C0000546744B1B6813F4807FB5D003F0EEF92C
:1012D000401B0228F5D9032091E16E4A536F23F099
:1012E0000103536703F0E2F905466A4B5B6F13F0A5
:1012F000020F06D003F0DAF9401B0228F5D90320CB
:101300007DE1236813F0200F29D0A3699BB1614AC6
:10131000136843F48053136003F0C8F905465D4B2E
:101320001B6813F4005F1AD103F0C0F9401B0228B8
:10133000F5D9032063E1574A136823F480531360FF
:1013400003F0B4F90546534B1B6813F4005F06D055
:1013500003F0ACF9401B0228F5D903204FE12368C4
:1013600013F0040F21D1636A002B00F04781494A32
:10137000126902F03802182A00F0EE80022B75D0B4
:10138000444A136823F08073136003F08FF9044616
:10139000404B1B6813F0007F00F0DC8003F086F9FF
:1013A000001B0228F4D9032029E13B4A136843F4C7
:1013B0008073136003F07AF90546374B1B6813F40A
:1013C000807F06D103F072F9401B6428F5D9032011
:1013D00015E1A368012B0AD00BBB2E4B1A6F22F02C
:1013E00001021A671A6F22F004021A6704E0294A00
:1013F000136F43F001031367A36833B303F056F987
:101400000546244B1B6F13F0020FACD103F04EF9CD
:10141000401B41F288339842F3D90320EFE0052BBB
:1014200009D01C4B1A6F22F001021A671A6F22F0C2
:1014300004021A67E0E7174B1A6F42F004021A67BA
:101440001A6F42F001021A67D6E703F02FF905463A
:10145000104B1B6F13F0020F85D003F027F9401BD0
:1014600041F288339842F3D90320C8E0094A13684F
:1014700023F08073136003F019F90546054B1B68D0
:1014800013F0007F0AD003F011F9401B0228F5D9B0
:101490000320B4E000440258004802585F4B996AA8
:1014A0005F4A0A40A16AE06A41EA00110A439A626F
:1014B000226B013AC2F30802616B0139490289B219
:1014C0000A43A16B0139090401F4FE010A43E16BEF
:1014D0000139090601F0FE410A431A63DA6A22F073
:1014E0000102DA62596B4F4A0A40A16C42EAC1021A
:1014F0005A63DA6A22F00C02216C0A43DA62DA6A71
:1015000022F00202616C0A43DA62DA6A42F4803243
:10151000DA62DA6A42F40032DA62DA6A42F480228B
:10152000DA62DA6A42F00102DA621A6842F0807224
:101530001A6003F0BBF80446384B1B6813F0007FB9
:1015400006D103F0B3F8001B0228F5D9032056E0BA
:10155000002054E0002052E0304A916A106B012BC9
:101560004ED001F00303A26A93424BD1C1F305119F
:10157000E36A994248D1C0F30802236B013B9A42C7
:1015800044D1C0F34622636B013B9A4240D1C0F381
:101590000642A36B013B9A423CD1C0F30660E36B69
:1015A000013B984238D11D4B5B6BC3F3CC03A26C5B
:1015B0009A4201D1002022E0184AD36A23F00103A5
:1015C000D36203F073F8054603F070F8A842FBD02D
:1015D000124A516B134B0B40A16C43EAC103536396
:1015E000D36A43F00103D362002008E00120704772
:1015F000012004E0012002E0012000E0002038BDCD
:101600000120FCE70120FAE70120F8E70120F6E7D6
:101610000120F4E70120F2E70120F0E7004402583E
:101620000CFCFFFF0700FFFF744B1B6903F038033E
:10163000102B00F0DF80182B10D00BB170487047D2
:101640006E4B1B6813F0200F00F0D6806B4B1868B0
:10165000C0F3C1006B4B23FA00F0704710B4674A27
:10166000916A01F00301946AC4F30510D36A03F090
:101670000103526BC2F3CC0203FB02F307EE903A74
:10168000F8EE677A14F47C7F00F09480012966D02C
:10169000022900F09280E1B107EE100AF8EE476AE5
:1016A0009FED596A86EE267A544B1B6BC3F30803F1
:1016B00006EE903AF8EE666A9FED546A67EE867A17
:1016C00076EEA77AF7EE006A77EEA67A27EE277A0B
:1016D00061E04A4B1B6813F0200F23D047490A688A
:1016E000C2F3C102474BD34007EE103AF8EE476A07
:1016F00007EE100AB8EE476A86EE867A0B6BC3F3E4
:10170000080306EE903AF8EE666A9FED406A67EECF
:10171000867A76EEA77AF7EE006A77EEA67A27EE5B
:10172000277A38E007EE100AF8EE476A9FED386A2C
:1017300086EE267A314B1B6BC3F3080306EE903A14
:10174000F8EE666A9FED316A67EE867A76EEA77AE2
:10175000F7EE006A77EEA67A27EE277A1BE007EE0F
:10176000100AF8EE476A9FED286A86EE267A234B28
:101770001B6BC3F3080306EE903AF8EE666A9FED22
:10178000236A67EE867A76EEA77AF7EE006A77EE3E
:10179000A67A27EE277A194B1B6BC3F34623013336
:1017A00007EE903AF8EE677AC7EE276AFCEEE67A23
:1017B00017EE900A5DF8044B704707EE100AF8EE3A
:1017C000476A9FED146A86EE267A0C4B1B6BC3F3B7
:1017D000080306EE903AF8EE666A9FED0C6A67EE33
:1017E000867A76EEA77AF7EE006A77EEA67A27EE8B
:1017F000277AD0E7084870470248704700440258EB
:1018000000093D000090D0030024744A0000003914
:101810000024744C20BCBE4B40787D01002800F0B1
:10182000328170B50D4604469B4B1B6803F00F03D5
:101830008B420BD2984A136823F00F030B431360BB
:10184000136803F00F038B4240F01F81236813F0ED
:10185000040F0CD02269914B9B6903F070039A42EC
:1018600005D98E498B6923F070031A438A61236876
:1018700013F0080F0CD06269884BDB6903F070032A
:101880009A4205D98549CB6923F070031A43CA618E
:10189000236813F0100F0CD0A269804BDB6903F4AE
:1018A000E0639A4205D97D49CB6923F4E0631A438A
:1018B000CA61236813F0200F0CD0E269774B1B6AD2
:1018C00003F070039A4205D974490B6A23F0700340
:1018D0001A430A62236813F0020F0CD0E2686F4BC0
:1018E0009B6903F00F039A4205D96C498B6923F079
:1018F0000F031A438A61236813F0010F41D0674A2E
:10190000936923F47063A1680B4393616368022BAE
:101910000AD0032B27D0012B2CD0604A126812F07A
:10192000040F06D10120ADE0126812F4003F00F070
:10193000AE805A490A6922F0070213430B6102F094
:10194000B5FE0646554B1B6903F038036268B3EBDE
:10195000C20F16D002F0AAFE801B41F288339842D3
:10196000F0D903208EE04D4A126812F0007FE0D1DA
:10197000012087E0494A126812F4807FD9D1012002
:1019800080E0236813F0020F0CD0E268434B9B69A0
:1019900003F00F039A4205D240498B6923F00F03ED
:1019A0001A438A613C4B1B6803F00F03AB420AD910
:1019B000394A136823F00F032B431360136803F0B5
:1019C0000F03AB4265D1236813F0040F0CD02269DA
:1019D000324B9B6903F070039A4205D22F498B6901
:1019E00023F070031A438A61236813F0080F0CD0A8
:1019F00062692A4BDB6903F070039A4205D22749DA
:101A0000CB6923F070031A43CA61236813F0100FE7
:101A10000CD0A269214BDB6903F4E0639A4205D242
:101A20001E49CB6923F4E0631A43CA61236813F0AB
:101A3000200F0CD0E269194B1B6A03F070039A4225
:101A400005D216490B6A23F070031A430A62FFF7A6
:101A5000EBFD12498B69C3F30323114AD35C03F0F6
:101A60001F03D8408B6903F00F03D35C03F01F03FF
:101A700020FA03F30B4A13600B4B18600B4B1868EA
:101A800002F0B2FD70BD012070470120FAE701208D
:101A9000F8E70120F6E700BF00200052004402589A
:101AA000046800084C020020480200204402002084
:101AB00008B5FFF7B9FD0B4A9369C3F303230A493D
:101AC000CB5C03F01F0320FA03F3926902F00F02CC
:101AD000885C00F01F0023FA00F0044A1060044AFA
:101AE000136008BD00440258046800084C0200203E
:101AF0004802002008B5FFF7DBFF054BDB69C3F3A5
:101B00000213044AD35C03F01F03D84008BD00BF92
:101B1000004402580468000808B5FFF7C9FF054BE8
:101B2000DB69C3F30223044AD35C03F01F03D840EC
:101B300008BD00BF0044025804680008404B9B6A7F
:101B400003F00303032B79D070B505460E463C4ADB
:101B5000136823F08063136002F0A8FD0446384B3D
:101B60001B6813F0006F06D002F0A0FD031B022BD0
:101B7000F5D9032070BD324B9A6A22F47C32296871
:101B800042EA01329A626A68013AC2F30802A9681D
:101B90000139490289B20A43E9680139090401F4AB
:101BA000FE010A4329690139090601F0FE410A4391
:101BB0009A63DA6A22F0C00269690A43DA62DA6A71
:101BC00022F02002A9690A43DA62DA6A22F01002DE
:101BD000DA62D96B1B4A0A40E96942EAC102DA6358
:101BE000DA6A42F01002DA62C6B91A46DB6A43F4D6
:101BF0000023D362124A136843F08063136002F03B
:101C000055FD04460E4B1B6813F0006F14D102F013
:101C10004DFD001B0228F5D90320ABE7012E05D0AE
:101C2000074AD36A43F40013D362E3E7044AD36A52
:101C300043F48013D362DDE700209BE70120704767
:101C4000004402580700FFFF404B9B6A03F0030368
:101C5000032B79D070B505460E463C4A136823F035
:101C60008053136002F022FD0446384B1B6813F0CA
:101C7000005F06D002F01AFD031B022BF5D90320EA
:101C800070BD324B9A6A22F07C72296842EA015296
:101C90009A626A68013AC2F30802A96801394902E6
:101CA00089B20A43E9680139090401F4FE010A43D3
:101CB00029690139090601F0FE410A431A64DA6A0A
:101CC00022F4406269690A43DA62DA6A22F4007235
:101CD000A9690A43DA62DA6A22F48072DA62596C1C
:101CE0001B4A0A40E96942EAC1025A64DA6A42F4CC
:101CF0008072DA62C6B91A46DB6A43F48003D362A3
:101D0000124A136843F08053136002F0CFFC04467C
:101D10000E4B1B6813F0005F14D102F0C7FC001BD0
:101D20000228F5D90320ABE7012E05D0074AD36A74
:101D300043F08073D362E3E7044AD36A43F40003B9
:101D4000D362DDE700209BE7012070470044025882
:101D50000700FFFFF8B50446016801F000620023A8
:101D6000134330D0836EB3F5001F26D00ED8EBB1ED
:101D7000B3F5801F07D102210830FFF7DFFE0546CB
:101D800045B12E4621E0012635461EE0B3F5401F41
:101D900009D100259F4A136D23F44013A16E0B4314
:101DA0001365002611E0012635460EE0994AD36AF4
:101DB00043F40033D3620025ECE702212830FFF71B
:101DC00043FF0546DCE700263546216801F48072B2
:101DD0000023134314D0A36D042B34D8DFE803F0A1
:101DE00003252C0808008B4AD36A43F40033D362DE
:101DF00065BB884A136D23F00703A16D0B43136580
:101E0000216801F400720023134331D0E36D802B6D
:101E10004FD020D8002B46D0402B19D1002104F1FF
:101E20000800FFF78BFE05461AE0002104F10800C8
:101E3000FFF784FE0546DBE7002104F12800FFF7E9
:101E400003FF0546D4E701263546D9E72E46D7E7F6
:101E5000012635460CE0C02B02D0B3F5807F1FD1A0
:101E600075BB6C4A136D23F4E073E16D0B4313658E
:101E7000216801F480620023134335D0D4F8A830E0
:101E8000B3F5800F51D020D8002B48D0B3F5001FF8
:101E900018D1002104F10800FFF750FE05461AE0B2
:101EA00001263546E4E75B4AD36A43F40033D36244
:101EB000D6E7002104F12800FFF7C6FE0546CFE76C
:101EC0002E46D5E7012635460EE0B3F5C00F02D009
:101ED000B3F5000F20D17DBB4E4A936D23F4600310
:101EE000D4F8A8100B439365216801F40062002325
:101EF000134336D0D4F8AC30B3F1007F56D020D89D
:101F0000002B4DD0B3F1807F18D1002104F10800DF
:101F1000FFF714FE05461AE001263546E4E73D4A80
:101F2000D36A43F40033D362D5E7002104F12800DB
:101F3000FFF78AFE0546CEE72E46D5E70126354651
:101F40000FE0B3F1407F02D0B3F1806F25D1002DB7
:101F500033D1304A936D23F0E063D4F8AC100B43D7
:101F60009365216801F00072002313432ED0E36CC7
:101F7000202B42D026D833B1102B20D1254AD36A4A
:101F800043F40033D362002D3ED1224AD36C23F0B8
:101F90003003E16C0B43D36418E001263546E0E7DB
:101FA0001C4AD36A43F40033D362D0E7002104F122
:101FB0002800FFF749FE0546C9E72E46D1E701266E
:101FC000354603E0302BDED001263546216801F48A
:101FD0008052002313432ED0236EB3F5005F52D0FE
:101FE0001AD8002B49D0B3F5805F0FD1002104F13E
:101FF0000800FFF7A3FD054614E0022104F10800E4
:10200000FFF79CFD0546BEE72E46DFE70126354675
:1020100011E000BF00440258B3F5405F02D0B3F5B1
:10202000804F27D1002D35D17D4A136D23F4E04335
:10203000216E0B431365216801F400520023134302
:1020400038D0636EB3F5003F55D028D843B1B3F50F
:10205000803F21D1012104F10800FFF76FFD054603
:10206000002D4FD16E4A136D23F4E023616E0B43B4
:1020700013651FE001263546DDE7694AD36A43F45C
:102080000033D362CEE7002104F12800FFF7DCFD26
:102090000546C7E72E46CEE7012635460AE0B3F5EA
:1020A000802FDDD0B3F5A02FDAD0B3F5403FD7D0E5
:1020B00001263546216801F480420023134331D0C4
:1020C000D4F8B030B3F1005F49D020D843B1B3F1B8
:1020D000805F19D1012104F10800FFF72FFD0546AB
:1020E000002D43D14E4A936D23F0E043D4F8B01055
:1020F0000B43936516E0012104F12800FFF7A4FDCE
:102100000546ADE72E46D5E7012635460AE0B3F190
:10211000804FE5D0B3F1A04FE2D0B3F1405FDFD004
:1021200001263546216801F400420023134309D0FB
:10213000236FB3F1805F1BD0B3F1005F26D0E3B112
:1021400001263546216801F08072002313433FD0F9
:10215000A36C032B38D8DFE803F0272230270121B6
:1021600004F12800FFF770FD0546B9E72E46D9E7D0
:102170002B4AD36A43F40033D36275B9284A136DEE
:1021800023F04053216F0B431365DBE7012104F17A
:102190000800FFF7D3FC0546EFE72E46D2E7204ABA
:1021A000D36A43F40033D3628DB91D4AD36C23F054
:1021B0000303A16C0B43D3640AE0022104F108007D
:1021C000FFF7BCFC0546EFE70126354600E02E464A
:1021D000216801F480020023134323D1216801F018
:1021E00001020023134300F09980E36F282B00F2D3
:1021F0009380DFE803F081919191919191917B918E
:102200009191919191918A919191919191918191D5
:10221000919191919191819191919191919181005F
:1022200000440258AC4A136843F48073136002F010
:102230003DFA0746A84B1B6813F4807F05D102F0D6
:1022400035FAC01B6428F5D90325002D4AD1A34BCC
:102250001B6FD4F8B420534013F4407F0CD09F4B35
:102260001A6F22F44072196F41F480311967196FA7
:1022700021F4803119671A67D4F8B430B3F5807F40
:1022800015D08DBBD4F8B43003F44072B2F5407F62
:102290001ED0924A136923F47C5313618F490B6F4C
:1022A000D4F8B420C2F30B0213430B6796E702F095
:1022B000FDF90746894B1B6F13F0020FE1D102F0C5
:1022C000F5F9C01B41F288339842F3D90325D8E7CA
:1022D0008248026922F47C52814901EA13131343B4
:1022E0000361DBE72E4679E72E4677E7012104F10B
:1022F0000800FFF723FC0546F5B9784A536D23F033
:102300003803E16F0B43536508E0012104F1280015
:10231000FFF79AFC0546EFE701263546216801F0F4
:1023200002020023134323D0A36F052B1CD8DFE840
:1023300003F00B05140B0B0B2E46EFE7012104F104
:102340000800FFF7FBFB05468DB9644A536D23F087
:102350000703A16F0B4353650AE0012104F1280034
:10236000FFF772FC0546EFE70126354600E02E46F2
:10237000216801F004020023134323D0D4F89430E1
:10238000052B1BD8DFE803F0090313090909012114
:1023900004F10800FFF7D2FB054695B94F4A936D4B
:1023A00023F00703D4F894100B4393650AE001214E
:1023B00004F12800FFF748FC0546EEE70126354604
:1023C00000E02E46216801F020020023134328D0AC
:1023D000D4F89030B3F1005F44D017D843B1B3F1D3
:1023E000805F10D1002104F10800FFF7A7FB05462C
:1023F000002D3ED1394A536D23F0E043D4F89010BC
:102400000B4353650DE0012635460AE0B3F1804FDA
:10241000EED0B3F1A04FEBD0B3F1405FE8D001268E
:102420003546216801F040020023134331D0D4F82F
:102430009C30B3F5006F55D020D843B1B3F5806F11
:1024400019D1002104F10800FFF778FB0546002DA3
:102450004FD1224A936D23F4E053D4F89C100B43E0
:10246000936516E0022104F12800FFF7EDFB054615
:10247000BEE72E46D5E7012635460AE0B3F5805F74
:10248000E5D0B3F5A05FE2D0B3F5406FDFD0012611
:102490003546216801F080020023134339D0D4F877
:1024A000A030B3F5804F00F0B98027D843B1B3F521
:1024B000005F20D1002104F10800FFF73FFB054633
:1024C000002D40F0B280054A936D23F46043D4F8A8
:1024D000A0100B4393651CE00048025800440258CA
:1024E000CFFFFF00022104F12800FFF7ADFB0546F6
:1024F000ADE72E46CDE7012635460AE0B3F5004F9D
:10250000DED0B3F5204FDBD0B3F5C04FD8D00126D5
:102510003546216801F00802002313430DD0D4F89A
:102520008430B3F5805F00F08280B44A536D23F4A9
:102530004053D4F884100B435365216801F0100216
:10254000002313430CD0D4F89830B3F5807F78D0B3
:10255000AA4A936D23F44073D4F898100B43936503
:10256000216801F40022002313430BD0D4F8A430D7
:10257000B3F5803F7FD0B3F5003F72D0002B6AD017
:1025800001263546216801F48022002313430DD033
:10259000D4F88830B3F5001F00F08580B3F5401FF4
:1025A00077D0B3F5801F6FD001263546216801F43E
:1025B00080320023134308D0236D002B7CD0B3F569
:1025C000803F00F0878001263546216801F00052E7
:1025D0000023134340F08780216801F40032002378
:1025E000134300F08D80D4F88030B3F5807F00F085
:1025F000078140F28280B3F5007F03D0B3F5407FBE
:1026000040F0F980002D40F001817C4A536D23F4A5
:102610004073D4F880100B43536571E0022104F13C
:102620002800FFF711FB05464AE72E4671E7022115
:1026300004F12800FFF708FB00283FF476AF0126DD
:1026400073E7022104F12800FFF7FEFA00283FF4A7
:102650007FAF01267CE7002104F10800FFF76EFA46
:1026600005467DB9654A936D23F44033D4F8A41030
:102670000B43936586E7022104F12800FFF7E4FA93
:102680000546EEE72E467DE75C4AD36A43F4003305
:10269000D3627DB9594A536D23F44013D4F888109E
:1026A0000B43536582E7012104F12800FFF7CCFAC0
:1026B0000546EEE72E4679E7504AD36A43F40033E5
:1026C000D36275B94D4AD36C23F48033216D0B432B
:1026D000D3647AE7022104F10800FFF72FFA0546D8
:1026E000EFE72E4671E7022104F12800FFF7ACFA6C
:1026F00000283FF471AF01266EE7002B82D001263F
:10270000216801F480120023134306D03B4A136D65
:1027100023F00043616F0B431365216801F0805281
:102720000023134307D0354A136923F48043D4F8B8
:10273000B8100B431361216801F400120023134306
:1027400006D02E4A136D23F08073E16E0B431365A0
:10275000216801F080420023134309D0274B1A69F6
:1027600022F400421A611A69D4F8BC100A431A61B3
:10277000216801F000420023134306D01F4AD36CA6
:1027800023F04053616D0B43D364216801F40002D0
:102790000023134307D0194A536D23F44003D4F8A0
:1027A0008C100B4353656168002201F00103134351
:1027B0002ED16168002201F00203134331D1616818
:1027C000002201F00403134334D16168002201F0B8
:1027D0000803134337D16168002201F0100313434B
:1027E0003AD16168002201F0200313433DD106B1C4
:1027F00001263046F8BD012682E700BF004402589A
:102800001E4AD36A43F40033D362FBE62E4677E7D1
:10281000002104F10800FFF791F90028C9D006460D
:10282000C7E7012104F10800FFF788F90028C6D0A6
:102830000646C4E7022104F10800FFF77FF90028EB
:10284000C3D00646C1E7002104F12800FFF7FCF9D8
:102850000028C0D00646BEE7012104F12800FFF79A
:10286000F3F90028BDD00646BBE7022104F1280099
:10287000FFF7EAF90028BAD00646B8E70044025844
:1028800008B5FFF715F9054B1B6AC3F30213044A99
:10289000D35C03F01F03D84008BD00BF00440258BA
:1028A0000468000830B4784A916A946AC4F3053524
:1028B000D36AC3F30013D26BC2F3CC0203FB02F35F
:1028C00014F47C3F00F0DA8001F0030107EE903A47
:1028D000F8EE677A012966D0022900F0B280E1B1F2
:1028E00007EE105AB8EE477A9FED686AC6EE076A9F
:1028F000654B9B6BC3F3080307EE103AB8EE477ABB
:102900009FED636A67EE867A77EE277AB7EE007AF4
:1029100077EE877A66EEA76A61E05B4B1B6813F07F
:10292000200F23D058490A68C2F3C102594BD34043
:1029300007EE103AB8EE477A06EE905AB8EE666A9D
:10294000C7EE066A8B6BC3F3080307EE103AB8EEC6
:10295000477A9FED4F6A67EE867A77EE277AB7EE71
:10296000007A77EE877A66EEA76A38E007EE105AAB
:10297000B8EE477A9FED486AC6EE076A424B9B6BFA
:10298000C3F3080307EE103AB8EE477A9FED406AAA
:1029900067EE867A77EE277AB7EE007A77EE877A57
:1029A00066EEA76A1BE007EE105AB8EE477A9FED75
:1029B000376AC6EE076A344B9B6BC3F3080307EE16
:1029C000103AB8EE477A9FED326A67EE867A77EE74
:1029D000277AB7EE007A77EE877A66EEA76A2A4AF8
:1029E000936BC3F3462307EE103AB8EE477AB7EE7F
:1029F000006A37EE067AC6EE877AFCEEE77AC0ED1B
:102A0000007A936BC3F3064307EE103AB8EE477AA9
:102A100037EE067AC6EE877AFCEEE77AC0ED017AE9
:102A2000936BC3F3066307EE903AF8EE677A77EE9E
:102A3000867A86EEA77ABCEEC77A80ED027A30BC41
:102A4000704707EE105AB8EE477A9FED146AC6EE4B
:102A5000076A0D4B9B6BC3F3080307EE103AB8EE01
:102A6000477A9FED0B6A67EE867A77EE277AB7EEA4
:102A7000007A77EE877A66EEA76AB0E700230360F4
:102A800043608360DBE700BF004402580024744ABF
:102A9000000000390090D0030024744C20BCBE4BD1
:102AA00030B4784A916A946AC4F30555D36AC3F383
:102AB0000023526CC2F3CC0203FB02F314F07C7FC0
:102AC00000F0DA8001F0030107EE903AF8EE677A41
:102AD000012966D0022900F0B280E1B107EE105A58
:102AE000B8EE477A9FED686AC6EE076A654B1B6CC5
:102AF000C3F3080307EE103AB8EE477A9FED636A16
:102B000067EE867A77EE277AB7EE007A77EE877AE5
:102B100066EEA76A61E05B4B1B6813F0200F23D0C1
:102B200058490A68C2F3C102594BD34007EE103A24
:102B3000B8EE477A06EE905AB8EE666AC7EE066AB5
:102B40000B6CC3F3080307EE103AB8EE477A9FED1B
:102B50004F6A67EE867A77EE277AB7EE007A77EEDD
:102B6000877A66EEA76A38E007EE105AB8EE477A21
:102B70009FED486AC6EE076A424B1B6CC3F308031D
:102B800007EE103AB8EE477A9FED406A67EE867A14
:102B900077EE277AB7EE007A77EE877A66EEA76A45
:102BA0001BE007EE105AB8EE477A9FED376AC6EE83
:102BB000076A344B1B6CC3F3080307EE103AB8EEF8
:102BC000477A9FED326A67EE867A77EE277AB7EE1C
:102BD000007A77EE877A66EEA76A2A4A136CC3F307
:102BE000462307EE103AB8EE477AB7EE006A37EEA2
:102BF000067AC6EE877AFCEEE77AC0ED007A136CAF
:102C0000C3F3064307EE103AB8EE477A37EE067A7A
:102C1000C6EE877AFCEEE77AC0ED017A136CC3F357
:102C2000066307EE903AF8EE677A77EE867A86EEDC
:102C3000A77ABCEEC77A80ED027A30BC704707EE07
:102C4000105AB8EE477A9FED146AC6EE076A0D4B2C
:102C50001B6CC3F3080307EE103AB8EE477A9FEDFA
:102C60000B6A67EE867A77EE277AB7EE007A77EE10
:102C7000877A66EEA76AB0E700230360436083604B
:102C8000DBE700BF004402580024744A000000390A
:102C90000090D0030024744C20BCBE4BF0B482B032
:102CA000002363E086685F000325BD4026EA050631
:102CB000CD68BD4035438560466826EA04064D6808
:102CC000C5F300149C40344344605EE08C68012CE2
:102CD00060D169E0DD08083550F8257003F007047D
:102CE000A6000F24B44027EA04070C69B4403C4313
:102CF00040F825405DE0092400E00024B4403C4356
:102D000002355F4E46F825404FF0B0442568D44365
:102D100025EA02064F6817F4801F01D042EA050633
:102D20004FF0B0452E606E6804EA06054F6817F450
:102D3000001F01D042EA06054FF0B0467560514DC4
:102D40006D6804EA05064F6817F4003F01D042EAB7
:102D500005064C4D6E602D682C404E6816F4803F81
:102D600001D042EA0504474A146001330A6832FA86
:102D700003F400F0828001249C402240F5D04D688D
:102D800005F00305013D012D8CD94C6804F00304C6
:102D9000032C9BD0C5685E000324B44025EA0405DB
:102DA0008C68B4402C43C4604C6804F00304022CCB
:102DB00090D005685E000324B44025EA04054C6801
:102DC00004F00304B4402C4304604C6814F4403F06
:102DD000CBD02D4CD4F8F45045F00205C4F8F45093
:102DE000D4F8F44004F002040194019C9D08AE1C48
:102DF000234C54F8267003F00304A6000F24B440BB
:102E000027EA0407214CA0423FF477AF04F5806421
:102E1000A04222D004F58064A04220D004F5806452
:102E2000A0421ED004F58064A0421CD004F580644A
:102E3000A0421AD004F58064A04218D004F5806442
:102E4000A04216D004F58064A04214D004F580643A
:102E5000A0423FF450AF0A2450E701244EE7022479
:102E60004CE703244AE7042448E7052446E7062400
:102E700044E7072442E7082440E702B0F0BC70476B
:102E80000004005880000058004402580000025816
:102E90000369194201D001207047002070470AB130
:102EA000816170470904816170470000F0B4876D4B
:102EB0000468654E654DAC4218BFB44242D0183527
:102EC000AC423FD01835AC423CD01835AC4239D07A
:102ED0001835AC4236D01835AC4233D01835AC4238
:102EE00030D005F55675AC422CD01835AC4229D0FF
:102EF0001835AC4226D01835AC4223D01835AC4238
:102F000020D01835AC421DD01835AC421AD0183537
:102F1000AC4217D04E4DAC4214D01435AC4211D057
:102F20001435AC420ED01435AC420BD01435AC4243
:102F300008D01435AC4205D01435AC4202D014355B
:102F4000AC4207D1446E856E6560C46E14B1046FE7
:102F5000456F656004683C4E3C4DAC4218BFB442BE
:102F600052D01835AC424FD01835AC424CD0183541
:102F7000AC4249D01835AC4246D01835AC4243D0AB
:102F80001835AC4240D005F55675AC423CD01835EA
:102F9000AC4239D01835AC4236D01835AC4233D0BB
:102FA0001835AC4230D01835AC422DD01835AC4273
:102FB0002AD01835AC4227D0254E264DAC4218BF3A
:102FC000B44211D0244DAC420ED01435AC420BD0DB
:102FD0001435AC4208D01435AC4205D01435AC429F
:102FE00002D01435AC4223D1C46D04F01F05012476
:102FF000AC407C60046863608368402B1FD003682A
:1030000099600368DA6013E0C46D04F01F053F2483
:10301000AC40BC6005682C6824F480242C600468F3
:1030200063608368402B05D0036899600368DA60A9
:10303000F0BC704703689A600368D960F8E70368DA
:103040009A600368D960F3E710000240280002404C
:10305000085402581C540258305402580368274937
:10306000274A934218BF8B422FD0183293422CD05C
:103070001832934229D01832934226D01832934204
:1030800023D01832934220D0183293421DD002F53B
:103090005672934219D01832934216D01832934286
:1030A00013D01832934210D0183293420DD01832F8
:1030B00093420AD01832934207D01832934204D078
:1030C00023F0FF038365806D704710B4D9B21039C7
:1030D0000C4AA2FB0142C2F302120B4CA25CC26575
:1030E0005F2907D9094A1A4004328265806D5DF86C
:1030F000044B7047054A1A408265F7E7100002400A
:1031000028000240ABAAAAAAD467000800FCFFFF6F
:1031100083699BB9836A012B0AD0022B02D00BB1C1
:1031200000207047C36A13F0807F2AD100207047C7
:10313000C36AB3F1C07F26D000207047B3F5005FAB
:103140000AD0836A022B26D9032B26D1C36A13F037
:10315000807F24D100207047836A032B03D8DFE8E7
:1031600003F01404140A00207047C36A13F0807F30
:103170000DD100207047C36AB3F1C07F09D0002091
:1031800070470120704701207047012070470120DF
:1031900070470120704701207047002070470120D0
:1031A0007047000003682249224A934218BF8B42AD
:1031B00028D01432934225D01432934222D01432B4
:1031C00093421FD0143293421CD01432934219D030
:1031D0001432934216D0DAB2103A1749A1FB021208
:1031E000120916491944A8291FD9154B13449B00ED
:1031F0000366144B436602F01F02012303FA02F236
:1032000082667047DBB2083B0F4AA2FB03230F4ADA
:1032100002EB1312920002660D4A4266C3F30413D6
:10322000012202FA03F3836670470832DDE700BF2C
:10323000085402581C540258ABAAAAAAF0FBFDBFBE
:103240000082001080080240CDCCCCCC0096001645
:103250008058025801794A1E072A2CD830B40368D6
:10326000154D164CA34218BFAB4218D01434A342DC
:1032700015D01434A34212D01434A3420FD0143406
:10328000A3420CD01434A34209D01434A34206D074
:103290000B4B0B449B00C3660A4B036705E00A4BCC
:1032A0000B449B00C366094B0367012303FA02F238
:1032B000426730BC70477047085402581C5402588B
:1032C0003F820010400902403F96001640590258C4
:1032D00070B5044601F0EAF9002C00F0BB81054608
:1032E0002368AF49AF4A934218BF8B420CBF0122FB
:1032F000002250D030318B424DD018318B424AD011
:1033000018318B4247D018318B4244D018318B4250
:1033100041D018318B423ED001F556718B423AD0E4
:1033200018318B4237D018318B4234D018318B4250
:1033300031D018318B422ED018318B422BD018311E
:103340008B4228D018318B4225D09749974A934217
:1033500018BF8B4200F03681954A934200F03281CB
:103360001432934200F02E811432934200F02A81ED
:103370001432934200F026811432934200F02281ED
:103380001432934200F01E8140236365032384F8C6
:10339000353001204AE0022184F83510002184F8FC
:1033A00034107ABB834A93422CD01832934229D0EE
:1033B0001832934226D01832934223D018329342C7
:1033C00020D0183293421DD002F55672934219D084
:1033D0001832934216D01832934213D018329342C7
:1033E00010D0183293420DD0183293420AD01832BE
:1033F000934207D01832934204D01A6822F0010297
:103400001A6003E01A6822F001021A6023681A6841
:1034100012F0010F0BD001F049F9431B052BF5D930
:1034200020236365032384F83530012070BD1A68BA
:1034300061481040A168E2680A4321690A43616952
:103440000A43A1690A43E1690A43216A0A43024324
:10345000616A042900F09980584908685849014078
:10346000B1F1005F11D36168A1F12905A1F13F001D
:10347000032888BF052D06D9A1F14700012802D9EC
:103480004F39032901D842F480121A602668756901
:1034900025F00705636A1D43042B08D1A36A1D4369
:1034A000E36A23B12046FFF733FE002872D175612D
:1034B0002046FFF7D3FDE36D03F01F023F23934047
:1034C000836023683649374A934218BF8B4242D003
:1034D000183293423FD0183293423CD01832934274
:1034E00039D01832934236D01832934233D0183242
:1034F000934230D002F5567293422CD01832934248
:1035000029D01832934226D01832934223D0183251
:10351000934220D0183293421DD0183293421AD0D1
:103520001832934217D0204A934214D01432934257
:1035300011D0143293420ED0143293420BD0143275
:10354000934208D01432934205D01432934202D0F1
:103550001432934213D12046FFF724FEA368802B38
:103560006BD0236E22791A60636EA26E5A60636814
:10357000013B072B64D90023E366236763670020C0
:103580006065012384F8353050E7E16A206B014320
:103590000A4361E740236365012084F8350045E76D
:1035A0001000024028000240085402581C540258DF
:1035B00030540258400002403F8010FE0010005C72
:1035C0000000FFFF022284F83520002284F8342016
:1035D0001A6821491140A268402A2CD0802A27D09D
:1035E0000022E06842EAD002206942EAD002606923
:1035F00042EAD002A06942EAD002E06942EAD0027F
:10360000206A42EA10120A431A602268134B1344DC
:10361000134AA2FB03231B099B00E3652046FFF727
:103620001DFDE26D02F01F0101228A40426048E761
:103630004FF48042D5E71022D3E70023636090E780
:103640002046FFF707FEE36E00221A60236F626FC9
:103650005A6094E70120E9E60F00FEFFF8ABFDA7F2
:10366000CDCCCCCC002800F03E8170B5044690F85B
:103670003400012800F03981012084F8340094F8E6
:103680003500C0B2012807D04FF400636365002302
:1036900084F83430012070BD022084F83500002009
:1036A00060652068924E934DA84218BFB0422FD05B
:1036B0001835A8422CD01835A84229D01835A84270
:1036C00026D01835A84223D01835A84220D0183566
:1036D000A8421DD005F55675A84219D01835A84244
:1036E00016D01835A84213D01835A84210D0183576
:1036F000A8420DD01835A8420AD01835A84207D0E4
:103700001835A84204D0056825F00105056003E0DE
:10371000056825F0010505602046FFF7C7FB236813
:103720007349744A934218BF8B4238D0183293427F
:1037300035D01832934232D0183293422FD01832FB
:1037400093422CD01832934229D01832934226D07B
:1037500002F55672934222D0183293421FD018328B
:1037600093421CD01832934219D01832934216D08B
:103770001832934213D01832934210D01832934229
:103780000DD01A6822F00E0242F00A021A60236C71
:1037900093B12268136843F0040313600CE01A68C5
:1037A00022F01E0242F016021A60236C23B1226836
:1037B000136843F00803136023684D494D4A934250
:1037C00018BF8B4242D0183293423FD018329342F6
:1037D0003CD01832934239D01832934236D0183246
:1037E000934233D01832934230D002F5567293424E
:1037F0002CD01832934229D01832934226D0183256
:10380000934223D01832934220D0183293421DD0D5
:10381000183293421AD01832934217D0364A934244
:1038200014D01432934211D0143293420ED0143279
:1038300093420BD01432934208D01432934205D0F5
:103840001432934202D0143293420ED1236E1A687E
:1038500012F4803F03D01A6842F480721A60E36E5B
:103860001BB11A6842F480721A6023682049214A09
:10387000934218BF8B4230D0183293422DD0183269
:1038800093422AD01832934227D01832934224D040
:103890001832934221D0183293421ED002F556724C
:1038A00093421AD01832934217D01832934214D050
:1038B0001832934211D0183293420ED018329342EC
:1038C0000BD01832934208D01832934205D01A68B0
:1038D00042F001021A600020DDE61A6842F001029F
:1038E0001A600020D7E6012070470220D3E600BF0F
:1038F00010000240280002400854025870B50446E7
:1039000000F0D4FE002C00F09181054694F835308B
:10391000DBB2022B06D080236365002384F83430A9
:10392000012070BD23688C498C4A934218BF8B429A
:103930002FD0183293422CD01832934229D018320B
:10394000934226D01832934223D01832934220D08B
:10395000183293421DD002F55672934219D0183294
:10396000934216D01832934213D01832934210D09B
:10397000183293420DD0183293420AD01832934233
:1039800007D01832934204D01A6822F001021A605C
:1039900003E01A6822F001021A6023686E496F4A38
:1039A000934218BF8B4230D0183293422DD0183238
:1039B00093422AD01832934227D01832934224D00F
:1039C0001832934221D0183293421ED002F556721B
:1039D00093421AD01832934217D01832934214D01F
:1039E0001832934211D0183293420ED018329342BB
:1039F0000BD01832934208D01832934205D01A687F
:103A000022F00E021A60266809E01A6822F01E02EF
:103A10001A602268536923F0800353612668236883
:103A20004D494E4A934218BF8B4242D018329342BE
:103A30003FD0183293423CD01832934239D01832DA
:103A4000934236D01832934233D01832934230D05A
:103A500002F5567293422CD01832934229D0183274
:103A6000934226D01832934223D01832934220D06A
:103A7000183293421DD0183293421AD01832934212
:103A800017D0374A934214D01432934211D01432D3
:103A900093420ED0143293420BD01432934208D08A
:103AA0001432934205D01432934202D0143293421E
:103AB00004D1226E136823F480731360336813F00B
:103AC000010F0ED000F0F2FD431B052BF6D9202389
:103AD0006365032384F83530002384F834300120F3
:103AE0001FE723681C491D4A934218BF8B4239D0F7
:103AF0001832934236D01832934233D01832934260
:103B000030D0183293422DD0183293422AD0183236
:103B1000934227D002F55672934223D01832934233
:103B200020D0183293421DD0183293421AD0183246
:103B3000934217D01832934214D01832934211D0C6
:103B4000183293420ED0A16DE36D03F01F020123E2
:103B500093404B600DE000BF10000240280002407F
:103B600008540258A16DE36D03F01F023F239340F8
:103B70008B6023682E492F4A934218BF8B4242D054
:103B8000183293423FD0183293423CD018329342BD
:103B900039D01832934236D01832934233D018328B
:103BA000934230D002F5567293422CD01832934291
:103BB00029D01832934226D01832934223D018329B
:103BC000934220D0183293421DD0183293421AD01B
:103BD0001832934217D0184A934214D014329342A9
:103BE00011D0143293420ED0143293420BD01432BF
:103BF000934208D01432934205D01432934202D03B
:103C0000143293420BD1636EA26E5A60E36E33B1ED
:103C10001A6822F480721A60236F626F5A6001235F
:103C200084F83530002084F834007AE6012078E604
:103C3000100002402800024008540258002800F0FA
:103C4000FF8008B5024690F83530DBB2022B03D076
:103C500080234365012008BD03687B487B498B4274
:103C600018BF83420CBF0121002100F0AE8030302C
:103C7000834200F0AA801830834200F0A6801830FA
:103C8000834200F0A2801830834200F09E801830FA
:103C9000834200F09A801830834200F0968000F54D
:103CA0005670834200F091801830834200F08D807E
:103CB0001830834200F089801830834200F08580FC
:103CC0001830834200F08180183083427DD0183054
:103CD00083427AD01830834277D0196821F00101ED
:103CE000196011680B6823F00E030B6013685648C7
:103CF00056498B4218BF834242D018318B423FD085
:103D000018318B423CD018318B4239D018318B425C
:103D100036D018318B4233D018318B4230D001F578
:103D200056718B422CD018318B4229D018318B42DE
:103D300026D018318B4223D018318B4220D0183135
:103D40008B421DD018318B421AD018318B4217D0BC
:103D50003F498B4214D014318B4211D014318B4225
:103D60000ED014318B420BD014318B4208D0143159
:103D70008B4205D014318B4202D014318B4217D1C3
:103D8000116E0B6823F480730B60906DD36D03F09C
:103D90001F0101238B404360536E916E5960D36EB7
:103DA00033B1196821F480711960136F516F596034
:103DB000012382F83530002382F83430136D002B54
:103DC00040D010469847002045E7042082F835008F
:103DD00081BB204A93422DD0183293422AD0183208
:103DE000934227D01832934224D01832934221D0E4
:103DF000183293421ED002F5567293421AD01832EE
:103E0000934217D01832934214D01832934211D0F3
:103E1000183293420ED0183293420BD0183293428C
:103E200008D01832934205D01A6822F001021A60B5
:103E3000002010E71A6822F001021A6000200AE749
:103E400001207047002006E71000024028000240D1
:103E50000854025840000240F0B583B004460023E5
:103E60000193A24B1D68A24BA3FB0535AD0A876DDC
:103E70003E68D7F800C003689E499F48834218BF38
:103E80008B420CBF0120002061D09C4A93425ED03F
:103E9000183293425BD01832934258D01832934272
:103EA00055D01832934252D0183293424FD002F577
:103EB000567293424BD01832934248D018329342F4
:103EC00045D01832934242D0183293423FD0183234
:103ED00093423CD01832934239D01832934236D0B4
:103EE0008749884A934218BF8B4212D0864A934230
:103EF0000FD0143293420CD01432934209D01432B2
:103F0000934206D01432934203D01432934240F0CD
:103F100062821A68E16D01F01F010420884010EAF6
:103F20000C0F00F0A88212F0040F00F0A482786059
:103F300012F4004F00F05B8212F4803F00F05182D7
:103F4000A36C002B00F047822046984743E2E26DC5
:103F500002F01F0108228A40324241D070BB674AFA
:103F600093422BD01832934228D01832934225D056
:103F70001832934222D0183293421FD01832934203
:103F80001CD002F55672934218D01832934215D0C5
:103F90001832934212D0183293420FD01832934203
:103FA0000CD01832934209D01832934206D01832FE
:103FB000934203D01A68C2F3C00202E01A68C2F347
:103FC00080026AB11A6822F004021A60E36D03F0FD
:103FD0001F0208239340BB60636D43F001036365D8
:103FE000E26D02F01F0226FA02F313F0010F37D040
:103FF0002368404840498B4218BF83422CD0183177
:104000008B4229D018318B4226D018318B4223D0D5
:1040100018318B4220D018318B421DD018318B4281
:104020001AD001F556718B4216D018318B4213D03D
:1040300018318B4210D018318B420DD018318B4281
:104040000AD018318B4207D018318B4204D0183176
:104050008B4201D01B6803E05B6913F0800F3BD1FA
:10406000E36D03F01F03042202FA03F3334251D03D
:104070002268204820498A4218BF824246D018311F
:104080008A4243D018318A4240D018318A423DD00A
:1040900018318A423AD018318A4237D018318A42D0
:1040A00034D001F556718A4230D018318A422DD071
:1040B00018318A422AD018318A4227D018318A42D0
:1040C00024D018318A4221D018318A421ED01831AA
:1040D0008A421BD013681DE0012303FA02F2BA6082
:1040E000636D43F002036365BAE700BF4802002036
:1040F000B5814E1B100002402800024040000240E3
:10410000085402581C54025830540258126812F0D5
:10411000020F3DD1E36D03F01F03102202FA03F3F7
:1041200033425FD022689B489B498A4218BF824233
:1041300034D018318A4231D018318A422ED0183109
:104140008A422BD018318A4228D018318A4225D091
:1041500018318A4222D001F556718A421ED0183198
:104160008A421BD018318A4218D018318A4215D0A1
:1041700018318A4212D018318A420FD018318A423F
:104180000CD018318A4209D01268C2F3800208E0CC
:10419000BB60636D43F004036365BBE71268C2F361
:1041A000C002FAB1BB6023681A6812F4802F0DD0E8
:1041B0001B6813F4002F04D1236C9BB12046984751
:1041C00010E0A36C73B1204698470BE01A6812F414
:1041D000807F03D11A6822F008021A60236C0BB1A9
:1041E00020469847E36D03F01F03202202FA03F3F1
:1041F000334200F08E802268664867498A4218BFC1
:1042000082422ED018318A422BD018318A4228D0CF
:1042100018318A4225D018318A4222D018318A4278
:104220001FD018318A421CD001F556718A4218D02D
:1042300018318A4215D018318A4212D018318A4278
:104240000FD018318A420CD018318A4209D0183167
:104250008A4206D018318A4203D01268C2F3400263
:1042600002E01268C2F30012002A52D0BB6094F838
:104270003530DBB2042B0ED023681A6812F4802F7D
:1042800035D01B6813F4002F2CD0636C002B40D06A
:10429000204698473DE02268136823F01603136018
:1042A0002268536923F080035361236CB3B1226801
:1042B000136823F008031360E36D03F01F023F232C
:1042C0009340BB60012384F83530002384F83430F8
:1042D000236D002B7FD0204698477CE0A36C002BF9
:1042E000E5D1E9E7E36BA3B12046984711E01A68EE
:1042F00012F4807F09D11A6822F010021A6001239B
:1043000084F83530002384F83430E36B0BB1204659
:104310009847636D002B5ED0636D13F0010F56D08C
:10432000042384F8353023681A491B4A934218BF86
:104330008B4233D01832934230D0183293422DD072
:10434000183293422AD01832934227D0183293421F
:1043500024D01832934221D002F5567293421DD0D8
:10436000183293421AD01832934217D0183293421F
:1043700014D01832934211D0183293420ED0183212
:1043800093420BD01832934208D01A6822F00102EF
:104390001A6007E010000240280002401A6822F06C
:1043A00001021A60019B01330193AB4204D82368D8
:1043B0001B6813F0010FF5D123681B6813F0010F80
:1043C0000BD0032384F83530002384F83430E36CB9
:1043D0000BB12046984703B0F0BD012384F8353077
:1043E000F2E7236C002BF6D020469847F3E712F053
:1043F000200F3AD123686449644A934218BF8B4224
:104400002FD0183293422CD01832934229D0183230
:10441000934226D01832934223D01832934220D0B0
:10442000183293421DD002F55672934219D01832B9
:10443000934216D01832934213D01832934210D0C0
:10444000183293420DD0183293420AD01832934258
:1044500007D01832934204D01A6822F004021A607E
:1044600003E01A6822F008021A60236C002BB2D015
:1044700020469847AFE70220884010EA0C0F60D032
:1044800012F0020F5DD0786012F4004F0ED012F4DB
:10449000803F05D1636C002B9DD0204698479AE75A
:1044A000E36B002B97D02046984794E712F0200F3B
:1044B00040D123683449354A934218BF8B422FD0EC
:1044C000183293422CD01832934229D0183293429A
:1044D00026D01832934223D01832934220D018327B
:1044E00093421DD002F55672934219D0183293426E
:1044F00016D01832934213D01832934210D018328B
:1045000093420DD0183293420AD01832934207D00A
:104510001832934204D01A6822F00A021A6003E0AB
:104520001A6822F014021A60012384F8353000233F
:1045300084F83430E36B002B3FF44DAF20469847AE
:1045400049E7082000FA01F111EA0C0F3FF443AFEC
:1045500012F0080F3FF43FAF1A6822F00E021A6003
:10456000E36D03F01F03012202FA03F37B6062652F
:1045700084F83520002384F83430E36C002B3FF4BA
:104580002AAF2046984726E7100002402800024044
:10459000406D7047134BDB6813F0040F07D1114BCC
:1045A000DB6803F0070383421AD00120704710B57F
:1045B0000C4AD36823F007031843D06000F076F864
:1045C0000446084B5B6813F4005F07D100F06EF8F7
:1045D000001BB0F57A7FF4D9012000E0002010BD67
:1045E0000020704700480258104B1B780BB901207F
:1045F000704710B504464FF47A70B0FBF3F30C4AE1
:104600001068B0FBF3F0FCF757FC68B90F2C01D928
:1046100001200AE0002221464FF0FF30FCF70CFC9D
:10462000044B1C60002000E0012010BD400200206F
:10463000480200204402002010B50320FCF7EAFBEA
:10464000FCF7F2FF0F498B69C3F303230E4AD35CD7
:1046500003F01F03D8408B6903F00F03D35C03F012
:104660001F0320FA03F3094A1360094B18600F2057
:10467000FFF7BAFF10B10124204610BD0446FCF735
:1046800023FBF9E700440258046800084C020020AC
:1046900048020020034B1B78034A11680B44136047
:1046A000704700BF40020020E4080020014B18685A
:1046B000704700BFE408002038B50446FFF7F6FF56
:1046C0000546B4F1FF3F02D0044B1B781C44FFF7B2
:1046D000EDFF401BA042FAD338BD00BF40020020CE
:1046E000014B1868000C70470010005C026852E82B
:1046F000003F23F0C00342E800310029F6D10268F0
:1047000002F1080353E8003F23F40003083242E8B3
:1047100000310029F3D12023C0F888307047000011
:10472000026852E8003F23F4907342E80031002908
:10473000F6D1026802F1080353E8001F0D4B0B404D
:10474000083242E800310029F3D1C36E012B06D0B4
:104750002023C0F88C300023C3664367704702688B
:1047600052E8003F23F0100342E800310029F6D15F
:10477000EEE700BFFEFFFFEF1346D0F88820202AA7
:1047800040D110B50446B3FA83F25209002908BF9C
:104790000122002A38D10165A0F85430A0F8563023
:1047A000C0F890202122C0F88820C26FCAB11749F2
:1047B000D163C26F16491164C26F1649D164C26FCA
:1047C0000021116502682832016DC06FFEF74AFFB3
:1047D00038B11023C4F890302023C4F88830012069
:1047E0000FE0236840221A62226802F1080353E8AE
:1047F000003F43F08003083242E800310029F3D142
:10480000002010BD022070470120FAE7CF480008C1
:104810003B4900084949000810B50446226852E89F
:10482000003F23F4907342E800310029F6D122685A
:1048300002F1080353E8001F234B0B40083242E803
:1048400000310029F3D1E36E012B28D023689B6847
:1048500013F0400F15D0226802F1080353E8003F1F
:1048600023F04003083242E800310029F3D1D4F8A4
:10487000803033B100221A65D4F88000FFF73EF88B
:10488000B8B923680F221A622268936943F00803BB
:1048900093612023C4F88C300020E06610BD2268AC
:1048A00052E8003F23F0100342E800310029F6D11E
:1048B000CCE7D4F88000FFF76BFE2028E1D110236D
:1048C000C4F890300320E9E7FEFFFFEF704708B51A
:1048D0000346806BDB69B3F5807F18D00023A0F816
:1048E0005630026802F1080353E8003F23F08003CA
:1048F000083242E800310029F3D1026852E8003F53
:1049000043F0400342E800310029F6D108BDFFF72B
:10491000DDFFFBE708B5026852E8003F23F04003E3
:1049200042E800310029F6D12023C0F88830002366
:104930008367FFF7CBFF08BD704708B5806BFFF7B3
:10494000FBFF08BD7047704738B5846BD4F88820EA
:10495000D4F88C5023689B6813F0800F01D0212A73
:1049600010D023689B6813F0400F01D0222D0DD08A
:10497000D4F8903043F01003C4F890302046FBF791
:104980008DFF38BD2046FFF7B1FEEAE72046FFF76E
:10499000C7FEEDE708B5806BFBF780FF08BD0000A0
:1049A00070B504460168CB6908688D6840F60F024F
:1049B0001A4008D113F0200F05D010F0200F34D189
:1049C00015F0805F31D12AB1BA4A2A4033D1BA4EAC
:1049D000304230D1E26E012A00F0C68013F4801F0D
:1049E00003D015F4800F40F0A98113F0800F07D099
:1049F00010F0800F40F0A98115F4000F40F0A58160
:104A000013F0400F03D010F0400F40F0A58113F4D5
:104A1000000F03D010F0804F40F0A28113F0807F90
:104A200002D00028C0F2A08170BD636F002BFBD0C4
:104A300020469847F8E713F0010F09D010F4807F63
:104A400006D001260E62D4F890103143C4F89010BD
:104A500013F0020F0BD015F0010F08D021680226C9
:104A60000E62D4F8901041F00401C4F8901013F0D5
:104A7000040F0BD015F0010F08D0216804260E6238
:104A8000D4F8901041F00201C4F8901013F0080F10
:104A90000BD010F0200F00D13AB12268082111622A
:104AA000D4F890200A43C4F8902013F4006F0CD07F
:104AB00010F0806F09D022684FF400611162D4F8C1
:104AC000902042F02002C4F89020D4F89020002AD0
:104AD000AAD013F0200F09D010F0200F02D115F04A
:104AE000805F03D0636F0BB120469847D4F89020C5
:104AF00023689B6813F0400F02D112F0280F2CD0CE
:104B00002046FFF70DFE23689B6813F0400F20D06E
:104B1000226802F1080353E8003F23F04003083203
:104B200042E800310029F3D1D4F880306BB1634AF8
:104B30001A65D4F88000FFF781F800283FF474AFBD
:104B4000D4F88000036D98476EE72046FBF7A6FE79
:104B50006AE72046FBF7A2FE66E72046FBF79EFECB
:104B60000023C4F890305FE713F0100F3FF436AF26
:104B700010F0100F3FF432AF10230B6223689B68D4
:104B800013F0400F00F0A080D4F8802013684C4848
:104B90004C498B4218BF83422DD018318B422AD00A
:104BA00018318B4227D018318B4224D018318B42D8
:104BB00021D018318B421ED018318B421BD001F509
:104BC00056718B4217D018318B4214D018318B425A
:104BD00011D018318B420ED018318B420BD01831C6
:104BE0008B4208D018318B4205D018318B4202D04D
:104BF0005B689BB201E05B689BB2002B49D0B4F8C4
:104C00005C10994245D9A4F85E30D369B3F5807F32
:104C100032D0226852E8003F23F4807342E800312A
:104C20000029F6D1226802F1080353E8003F23F07F
:104C30000103083242E800310029F3D1226802F171
:104C4000080353E8003F23F04003083242E80031F4
:104C50000029F3D12023C4F88C300023E3662268B6
:104C600052E8003F23F0100342E800310029F6D15A
:104C7000D4F88000FEF742FE02232367B4F85C10EC
:104C8000B4F85E309BB2C91A89B22046FBF7E8FD42
:104C9000CAE6B4F85C1099427FF4C6AED369B3F5A6
:104CA000807F7FF4C1AE022323672046FBF7D8FD47
:104CB000BAE600BF01000010200100049549000879
:104CC0001000024028000240B4F85C10B4F85E30D6
:104CD0009BB2C91A89B2B4F85E309BB2002B3FF484
:104CE000A3AE00293FF4A0AE226852E8003F23F4AF
:104CF000907342E800300028F6D1226802F10803E0
:104D000053E8000F1A4B0340083242E800300028F5
:104D1000F3D12023C4F88C300023E3666367226854
:104D200052E8003F23F0100342E800300028F6D19B
:104D3000022323672046FBF793FD75E64FF48013AB
:104D40000B62204600F0CAFD6EE6A36F002B3FF415
:104D50006BAE2046984767E62046FFF7DBFD63E62B
:104D6000204600F0BDFD5FE6204600F0B8FD5BE6A2
:104D7000FEFFFFEF10B50346806B01220267C26E93
:104D8000012A47D1B0F85C104A08A0F85E201B68E1
:104D9000224C234A934218BFA3422DD0183293428B
:104DA0002AD01832934227D01832934224D0183296
:104DB000934221D0183293421ED0183293421BD016
:104DC00002F55672934217D01832934214D018321B
:104DD000934211D0183293420ED0183293420BD026
:104DE0001832934208D01832934205D018329342B9
:104DF00002D05B689BB201E05B689BB2994201D331
:104E0000A0F85E30B0F85E309BB2C91A89B2FBF7E9
:104E100027FD10BDFFF797FDFBE700BF1000024024
:104E20002800024010B50446806BE369B3F5807F2B
:104E300029D00023A0F85E30026852E8003F23F436
:104E4000807342E800310029F6D1026802F10803BC
:104E500053E8003F23F00103083242E80031002903
:104E6000F3D1026802F1080353E8003F23F0400346
:104E7000083242E800310029F3D12023C0F88C30F9
:104E8000C36E012B3CD000230367C36E012B51D1AD
:104E90000023A0F85E3023682849294A934218BFAE
:104EA0008B4237D01832934234D01832934231D0EB
:104EB000183293422ED0183293422BD0183293429C
:104EC00028D01832934225D002F55672934221D051
:104ED000183293421ED0183293421BD0183293429C
:104EE00018D01832934215D01832934212D018328B
:104EF00093420FD0183293420CD05B689BB20BE008
:104F0000026852E8003F23F0100342E80031002914
:104F1000F6D1B8E75B689BB2B0F85C10994201D952
:104F2000A0F85E30B0F85E309BB2C91A89B2FBF7C8
:104F300097FC10BDFFF706FDFBE700BF1000024025
:104F4000280002402DE9F04186B0044601688368DC
:104F50000269134342691343C26913430868884ACC
:104F6000024013430B602268536823F44053E16806
:104F70000B435360A1692268824B9A4201D0236A95
:104F800019439068804B03400B4393602268D36AB7
:104F900023F00F03616A0B43D36222687B4B9A4272
:104FA00021D07B4B9A4200F08C807A4B9A4200F0E1
:104FB000A280794B9A4200F0B580784B9A4200F07B
:104FC000C880774B9A4200F0F380764B9A4200F00B
:104FD0001881754B9A4200F02B816A4B9A4200F07F
:104FE0003E81802333E0714B5B6D03F03803282B47
:104FF00065D8DFE813F029006400640064006400F1
:105000006400640064004C01640064006400640097
:105010006400640064002B006400640064006400A9
:105020006400640064005E00640064006400640066
:105030006400640064006000640064006400640054
:105040006400640064006200012300E008234D490D
:105050008A4200F02E81E069B0F5004F00F0B08187
:10506000202B00F20982202B00F25D82DFE813F092
:105070002A0230025B025B0233025B025B025B02CC
:1050800038025B025B025B025B025B025B025B025B
:105090003D025B025B025B025B025B025B025B0246
:1050A0005B025B025B025B025B025B025B025B0218
:1050B00049021023CBE72023C9E74023C7E7802319
:1050C000C5E73A4B5B6D03F00703052B11D8DFE80A
:1050D00013F00600E00008000A000C000E00002398
:1050E000B5E70823B3E71023B1E72023AFE7402358
:1050F000ADE78023ABE72D4B5B6D03F00703052B7A
:105100000ED8DFE803F003C80507090B00239EE76C
:1051100008239CE710239AE7202398E7402396E78B
:10512000802394E7214B5B6D03F00703052B0ED81A
:10513000DFE803F003B30507090B002387E7082323
:1051400085E7102383E7202381E740237FE780233F
:105150007DE7164B5B6D03F00703052B0ED8DFE8E8
:1051600003F0039E0507090B002370E708236EE791
:1051700010236CE720236AE7402368E7802366E773
:10518000F369FFCF000C0058FFF4FF11001001403D
:105190000044004000480040004C004000500040E7
:1051A0000014014000780040007C00400044025898
:1051B0007E4B5B6D03F03803282B20D8DFE803F02B
:1051C000151F1F1F1F1F1F1F711F1F1F1F1F1F1FA7
:1051D000171F1F1F1F1F1F1F191F1F1F1F1F1F1FED
:1051E0001B1F1F1F1F1F1F1F1D0001232FE7082349
:1051F0002DE710232BE7202329E7402327E78023EF
:1052000025E76A4B5B6D03F00703052B0ED8DFE83B
:1052100003F0034A0507090B002318E7082316E7E4
:10522000102314E7202312E7402310E780230EE722
:105230005E4B5B6D03F00703052B0ED8DFE803F030
:1052400003350507090B002301E70823FFE61023B8
:10525000FDE62023FBE64023F9E68023F7E603F58D
:105260000E339B6D03F00703052B0ED8DFE803F028
:10527000031F0507090B0223E9E60823E7E61023CD
:10528000E5E62023E3E64023E1E68023DFE604238E
:10529000DDE60423DBE60423D9E60423D7E6042372
:1052A000D5E60423D3E60423D1E60423CFE6042382
:1052B000CDE6202B27D8022BC0F02781023B1E2BE6
:1052C00000F22581DFE813F052002301580023018A
:1052D000230123015D002301230123012301230175
:1052E0002301230162002301230123012301230160
:1052F000230123012301230123012301230123018E
:10530000230123016E00402B2ED14FF40040626A2E
:10531000274B33F81220B0FBF2F3656805EB45012B
:10532000994200F2F680B3EB053F00F2F4804FF0B3
:10533000000892B200234146FBF71AF80F0247EA31
:105340001067060268082A464346301847F10001F4
:10535000FBF70EF8A0F54072164B9A4200F2DD8082
:105360002368D8604046A2E00120A0E0FDF788FA5B
:105370000028CCD100209AE003A8FDF793FA049806
:10538000F6E76846FDF78CFB0198F1E7074B1B68D1
:1053900013F0200F08D0054B1B68C3F3C103064868
:1053A000D840E5E70548B2E70348B0E700440258B3
:1053B000DC670008FFFC0F000090D00300093D00EF
:1053C000202B15D8202B00F2AA80DFE803F032381A
:1053D000A8A83BA8A8A840A8A8A8A8A8A8A845A885
:1053E000A8A8A8A8A8A8A8A8A8A8A8A8A8A851003C
:1053F000402B1CD1626A4E4B33F81230B0FBF3F0F5
:105400006268530803EB4000B0FBF2F0A0F1100219
:105410004FF6EF739A4200F2848083B223F00F03B9
:10542000C0F3420018432368D86000203FE0012009
:105430003DE0FCF75FFB0028DCD1002037E0FCF703
:105440006BFBF8E703A8FDF72DFA0498F3E768462D
:10545000FDF726FB0198EEE7364B1B6813F0200F93
:1054600008D0344B1B68C3F3C1033348D840E2E78C
:105470003248BFE73048BDE7402B17D14FF400401A
:10548000626A2B4B33F81230B0FBF3F0636800EB29
:105490005300B0FBF3F0A0F110024FF6EF739A4205
:1054A00043D8236880B2D860002000E001200123A7
:1054B000A4F86A30A4F8683000236367A36706B0D5
:1054C000BDE8F081FCF716FB0028D9D10020EEE7FB
:1054D000FCF722FBF8E703A8FDF7E4F90498F3E7EB
:1054E0006846FDF7DDFA0198EEE7124B1B6813F0F2
:1054F000200F08D00F4B1B68C3F3C1030E48D840E0
:10550000E2E70E48BCE70C48BAE70120CFE70120EC
:10551000CDE70120CBE70120C9E70120C7E7012043
:10552000C5E70120C3E70120C1E70120BFE700BFB5
:10553000DC670008004402580090D00300093D00D9
:10554000836A13F0080F06D00268536823F40043FF
:10555000816B0B435360836A13F0010F06D002681E
:10556000536823F40033C16A0B435360836A13F01A
:10557000020F06D00268536823F48033016B0B439B
:105580005360836A13F0040F06D00268536823F453
:105590008023416B0B435360836A13F0100F06D0D6
:1055A0000268936823F48053C16B0B439360836A52
:1055B00013F0200F06D00268936823F40053016CA7
:1055C0000B439360836A13F0400F0AD0026853685C
:1055D00023F48013416C0B435360436CB3F5801F7D
:1055E0000BD0836A13F0800F06D00268536823F44F
:1055F0000023C16C0B43536070470268536823F467
:10560000C003816C0B435360EBE72DE9F84305467B
:105610000E4617469946DDF820802C68E46936EA84
:1056200004030CBF01240024BC423AD1B8F1FF3F6F
:10563000F3D0FFF73BF8A0EB0900404534D8B8F1B0
:10564000000F33D02B681A6812F0040FE5D0B6F1C2
:10565000400218BF0122802EDFD0002ADDD0DA6997
:1056600012F0080F11D1DA6912F4006FD5D04FF49F
:1056700000621A622846FFF753F82023C5F89030DD
:10568000002385F8843003200CE008241C6228469F
:10569000FFF746F8C5F89040002385F884300120D4
:1056A00000E00020BDE8F8830320FBE70320F9E7D2
:1056B00030B583B004460023C0F89030FEF7F6FF03
:1056C000054623681B6813F0080F10D123681B6878
:1056D00013F0040F28D12023C4F88830C4F88C308C
:1056E0000020E066206784F8840003B030BD6FF0CE
:1056F0007E430093034600224FF400112046FFF73B
:1057000084FF0028E2D0226852E8003F23F08003A3
:1057100042E800310029F6D12023C4F88830002364
:1057200084F884300320E0E76FF07E4300932B463B
:1057300000224FF480012046FFF767FF0028CAD0FF
:10574000226852E8003F23F4907342E800310029B8
:10575000F6D1226802F1080353E8003F23F0010369
:10576000083242E800310029F3D12023C4F88C30FC
:10577000002384F884300320B7E778B310B50446DB
:10578000D0F888300BB32423C4F88830226813681B
:1057900023F001031360A36AE3B92046FFF7D2FBAD
:1057A000012811D02268536823F490435360226883
:1057B000936823F02A0393602268136843F001037F
:1057C00013602046FFF774FF10BD80F88430FBF7AC
:1057D0008DFAD8E72046FFF7B3FEDEE701207047D9
:1057E00010B5044613468165A0F85C200022C0F87D
:1057F00090202222C0F88C20D0F88020AAB1214924
:10580000D163D0F8802020491164D0F880201F494E
:10581000D164D0F88020002111650168826D2431A7
:10582000D0F88000FDF71EFF20BB236943B122683A
:1058300052E8003F43F4807342E800310029F6D17A
:10584000226802F1080353E8003F43F001030832E5
:1058500042E800310029F3D1226802F1080353E83D
:10586000003F43F04003083242E800310029F3D101
:10587000002010BD1023C4F890302023C4F88C30D1
:105880000120F6E7254E0008754D0008494900083B
:10589000436E2BB90123A0F86A30A0F86830704736
:1058A00030B403689A68C2F342629968490F094D9F
:1058B0006B5C1B01084C615C93FBF1F3A0F86A3050
:1058C000AB5C1B01A25C93FBF2F3A0F8683030BC28
:1058D000704700BFFC670008F46700087047704716
:1058E000704790F88430012B18D0012380F8843061
:1058F0002423C0F8883003681A68196821F0010170
:10590000196022F000520023436601680A602022D9
:10591000C0F8882080F8843018467047022070470D
:1059200038B590F88430012B1DD00446012380F84F
:1059300084302423C0F8883003681D681A6822F078
:1059400001021A600268936823F060431943916072
:10595000FFF79EFF23681D602023C4F888300020D5
:1059600084F8840038BD0220FCE738B590F8843014
:10597000012B1DD00446012380F884302423C0F875
:10598000883003681D681A6822F001021A600268F4
:10599000936823F0606319439160FFF779FF2368F0
:1059A0001D602023C4F88830002084F8840038BDAE
:1059B0000220FCE7D0F88C30202B24D110B504460F
:1059C000B2FA82F35B09002908BF01230BB1012061
:1059D00010BD0123C36600230367FFF701FF002802
:1059E000F6D1E36E012B01D00120F1E723681022EC
:1059F0001A62226852E8003F43F0100342E8003187
:105A00000029F6D1E4E7022070470000304AD2F8BE
:105A1000883043F47003C2F888302E4B1B6803F0C3
:105A20000F03062B06D82B4A136823F00F0343F00D
:105A300007031360284B1A6842F001021A60002223
:105A40001A611968254A0A401A60224B1B6813F034
:105A5000080F06D01F4A136823F00F0343F0070313
:105A600013601D4B00229A61DA611A621C49996227
:105A70001C49D9621C4919635A639963DA63196432
:105A80005A64196821F4802119601A66174B1A6844
:105A9000174B1340B3F1005F02D2164B01221A607C
:105AA0000D4BD3F8D43013F4805F10D10A4BD3F8E8
:105AB000D42042F48052C3F8D4200F4A43F2D201DA
:105AC0001160D3F8D42022F48052C3F8D420704758
:105AD00000ED00E000200052004402587FEDF6EA9D
